:020000040800F2
:10000000D063012071020008ED360008BB2A000809
:100010005D3500083D0B0008794400080000000031
:10002000000000000000000000000000B101000816
:10003000DD0C0008000000000D0200086D3C000807
:100040008B0200088B0200088B0200088B0200085C
:100050008B0200088B0200088B0200088B0200084C
:100060008B0200088B0200088B0200088B0200083C
:100070008B0200088B0200088B0200088B0200082C
:100080008B0200088B0200088B02000800000000B1
:100090000000000000000000000000008B020008CB
:1000A0008B0200088B0200088B0200088B020008FC
:1000B0008B020008293D0008353D00088B0200082E
:1000C0008B0200088B0200088B0200088B020008DC
:1000D0008B020008614400086D4400080000000025
:1000E0008B0200088B0200088B0200080000000051
:1000F0000000000000000000000000008B0200086B
:10010000000000008B0200088B0200088B02000830
:1001100000000000000000000000000000000000DF
:100120008B0200088B020008210C00088B020008DB
:100130008B0200080000000000000000000000002A
:100140000000000000000000000000008B0200081A
:100150008B0200088B0200082D0C00088B0200089F
:100160008B0200088B020008000000000000000065
:10017000000000000000000000000000000000007F
:10018000000000008B0200080000000000000000DA
:100190008B0200088B020008DFF810D000F04CFC46
:1001A00000480047E94A0208AFF30080D06301200D
:1001B0002C4B19680868B0E8F04F80F30988BFF34A
:1001C0006F8F4FF0000080F311887047000000002F
:1001D00008480068006880F308884FF0000080F34A
:1001E000148862B661B6BFF34F8FBFF36F8F00DF25
:1001F00000BF00BF08ED00E0DFF80C00016841F42B
:1002000070010160704700BF88ED00E0EFF30980E6
:10021000BFF36F8F134B1A681EF0100F08BF20ED4D
:10022000108A20E9F04F106009B44FF0500080F3BD
:100230001188BFF34F8FBFF36F8F2AF043FD4FF04C
:10024000000080F3118809BC19680868B0E8F04F15
:100250001EF0100F08BFB0EC108A80F30988BFF3BE
:100260006F8F704778020020EFF305807047000021
:100270000648804706480047FEE7FEE7FEE7FEE740
:10028000FEE7FEE7FEE7FEE7FEE7FEE7193D0008B2
:10029000990100082DE9F05F0546002092469B4633
:1002A00088460646814640241BE02846414647468C
:1002B000224600F0F2FA53465A46C01A914110D332
:1002C00011461846224600F0D9FA2D1A67EB0108AC
:1002D0004F4622460120002100F0D0FA17EB00091A
:1002E0004E41201EA4F10104DFDC484631462A4677
:1002F0004346BDE8F09F10B5431A934209D28318D4
:10030000881803E010F8011D03F8011D521EF9D2F0
:1003100010BD40EA01039B0703D009E008C9121F82
:1003200008C0042AFAD203E011F8013B00F8013BAF
:10033000521EF9D210BDD2B201E000F8012B491EC5
:10034000FBD270470022F6E710B513460A46044672
:100350001946FFF7F0FF204610BD30B505462A4686
:100360000B4612F8010B13F8014B08B1A042F8D06C
:100370001CB1002802D06D1CF1E7284630BD421C9C
:1003800010F8011B0029FBD1801A704710B500221C
:1003900000E0521C835C8C5CA34201D1002BF8D19D
:1003A000D8B2E1B2401A10BD30B504460020034671
:1003B00000E05B1C934203D2E05CCD5C401BF8D0B4
:1003C00030BD034611F8012B00F8012B002AF9D1AA
:1003D000184670472DE9FE4F804681EA0300C00FA2
:1003E0000C46009021F0004123F00045B8EB0200DC
:1003F000A94105D24046214690461C460B4602467E
:1004000023F00040104347D0270DC7F30A00C3F381
:100410000A510290401A019040286BDAC3F313008E
:1004200040F4801B0098924620B10023D2EB030ACF
:1004300063EB0B0B01985946C0F14002504600F0A7
:100440001DFA06460D4650465946019A00F035FA07
:1004500010EB08006141002487EA115284EAE77337
:100460001A4340D0009A62B3019A012A4FEA075218
:1004700015DC001B61EB02014FF0004202EA07525B
:10048000CDE90042001C41F5801132462B4600F0B8
:100490006CFA03B0BDE8F08F40462146F9E7001B37
:1004A00061EB0201001C41F5801300185B4120182C
:1004B000A2F5001747EB030140EAD570B6196D416C
:1004C00011E06D084FEA360645EAC0754FEA07525B
:1004D000001B61EB0201001C41F5801149084FEA45
:1004E00030000019514132462B4603B0BDE8F04FB1
:1004F00000F02CBA0098012240000023D0EB020249
:1005000063EBE073009821464FEAE074B8EB00001B
:1005100061EB0401E9E783F000435BE781F0004110
:1005200058E72DE9FE4F81EA030404F0004421F06E
:10053000004100944FF0000B23F0004350EA010407
:100540005ED052EA03045BD0C3F30A54C1F30A55E8
:100550002C44A4F2F3340194A0FB0254C1F3130120
:1005600041F48011C3F3130343F4801301FB0244ED
:1005700000FB034E840A970A44EA815447EA8357F2
:10058000A4FB076802958D0A05FB07854FEA932CAB
:1005900004FB0C542705029D4FEA065847EA16371C
:1005A000B5EB08056EEB070C870E920E47EA811734
:1005B00042EA8312A7FB0201B6EB0B0164EB0004D5
:1005C0002B0D43EA0C335E1844EB1C50DA465146BF
:1005D000E7FB0201C5F313044FEA0B3343EA14535C
:1005E0004FEA0432019C43EA0603A4F10C0402948E
:1005F000009CCDE900B400F0B8F903B0BDE8F08F7D
:1006000000200146F9E72DE9F04D81EA030404F0EA
:10061000004B21F0004514464FF0000A23F0004142
:1006200050EA050220D054EA01021DD0C5F30A5752
:100630000246C5F31303C1F31300C1F30A5640F495
:10064000801543F48013A7EB0608101BD64608F26A
:10065000FD3873EB050002D308F1010801E09218A0
:100660005B41B8F1000F03DA00200146BDE8F08DD0
:1006700000204FF48011064684460EE0171B73EBF2
:10068000050705D3121B63EB050306434CEA010C77
:1006900049084FEA300092185B4150EA0107EDD15A
:1006A00052EA030012D082EA040083EA05010843FB
:1006B00005D0101BAB4106D20122002306E0002228
:1006C0004FF0004302E06FF0010253101AEB0600F6
:1006D0004CEB085110EB0A0041EB0B01BDE8F04D6B
:1006E00000F034B90EB5C10F80EAE0700844CA07C3
:1006F000002140F233438DE80E000A460B4600F01D
:1007000034F903B000BD0EB540F23341029100212F
:10071000CDE900110A460B4600F027F903B000BDF1
:1007200070B5C1F30A5201F000450024C1F3130172
:1007300040F2FF3341F480119A4201DA002070BD8B
:1007400040F233439A42A2F2334203DC524200F0B9
:10075000A4F800E090402C43F1D0404270BDC1F3BA
:100760000A5210B5C1F3130140F2FF3341F4801176
:100770009A4201DA002010BD40F233439A42A2F2BD
:10078000334203DC524200F088F810BD904010BDA7
:1007900000F0004230F000400AD0C10D01F5607158
:1007A000C0F3160042EA0151C208400711437047E6
:1007B000002001467047000030B5041E71F10004AE
:1007C00004DB4FF00044404264EB0101141E73F15E
:1007D000000405DB1C464FF00043524263EB040368
:1007E0008B4208BF824230BD30B5041E71F1000457
:1007F00004DB4FF00044404264EB0101141E73F12E
:10080000000405DB1C464FF00043524263EB040337
:10081000994208BF904230BD01F0004330B421F04E
:10082000004150EA010206D00A0DA2F56072C1F340
:100830001301002A02DC30BC00207047440F44EA58
:10084000C104C100E01830BC00EBC25000F047B852
:1008500030B50B46014600202022012409E021FA90
:1008600002F59D4205D303FA02F5491B04FA02F58D
:100870002844151EA2F10102F1DC30BD202A04DB60
:10088000203A00FA02F1002070479140C2F12003A3
:1008900020FA03F3194390407047202A04DB203AE2
:1008A00021FA02F00021704721FA02F3D040C2F190
:1008B00020029140084319467047202A06DBCB17D7
:1008C000203A41FA02F043EAE07306E041FA02F30B
:1008D000D040C2F1200291400843194670470029D8
:1008E000A8BF7047401C490008BF20F001007047B6
:1008F00010B4B0FA80FC00FA0CF050EA010404BF16
:1009000010BC704749B1CCF1200421FA04F411FA6B
:100910000CF118BF012121430843A3EB0C01CB1DAF
:100920004FEA00614FEA102042BF002010BC704720
:1009300000EBC35010440029A4BF10BC7047401CFA
:10094000490008BF20F0010010BC704710B5141E0C
:1009500073F1000408DA401C41F1000192185B4178
:100960001A4301D120F0010010BD2DE9F04D92464F
:100970009B4611B1B1FA81F202E0B0FA80F2203266
:100980009046FFF77BFF04460F4640EA0A0041EA23
:100990000B0153465A46084313D0114653EA01004F
:1009A00019D0C8F140025046FFF777FF05460E46C2
:1009B000504659464246FFF761FF084305D00120E3
:1009C00004E020463946BDE8F08D0020054346EAA4
:1009D000E0762C4337430A986305E40AA0EB08004D
:1009E0000022FD0A44EA47540A3002D5002001469D
:1009F000E9E7010510196941DDE908450019694178
:100A0000BDE8F04DA2E7C1F30A52C1F3130140F271
:100A1000FF3341F480119A4202DA00200146704708
:100A200040F233439A42A2F2334202DC5242FFF7D1
:100A300034BFFFF723BF0000064C074D06E0E06817
:100A400040F0010394E8070098471034AC42F6D315
:100A5000FFF7A6FBF41E0308141F030870B58C18DB
:100A600010F8015B15F0070301D110F8013B2A11C2
:100A700006D110F8012B03E010F8016B01F8016BAF
:100A80005B1EF9D12B0705D40023521E0DD401F8AB
:100A9000013BFAE710F8013BCB1A921C03E013F874
:100AA000015B01F8015B521EF9D5A142D8D30020A9
:100AB00070BD000008B502F057FA00241C4D42F248
:100AC0001076671E304629F0B9FF3946A8682AF02B
:100AD000C9FC02F00DFE287818B302F07FFB4FF43A
:100AE0007A7302226946002025F038F8022806DBD6
:100AF0009DF80000D02802D19DF8010080B1641C4F
:100B0000E4B2032C0DD300202870012208210948EB
:100B100000F044FD00224FF40041074800F03EFD84
:100B2000002400231A461946A8682AF0EFFAC9E7FC
:100B3000140000200004024000000240FEE7000014
:100B400070B50346AAB14FF6FF704AF201040CE0FB
:100B500013F8012B50400022C50702D084EA500050
:100B600000E04008521C082AF6DB491EC9B2EFD249
:100B700070BD094DFF20024605F5807606E000BFF6
:100B800013F8014B4440285D5040325D491EC9B204
:100B9000F6D240EA022070BD1818030807484178D1
:100BA0000078081A8030C11700EB516121F07F01F5
:100BB000401AC0F18000C0B2704700005C02002003
:100BC0002DE9F0410C468046FFF7E8FFA04202D233
:100BD0000020BDE8F081104D104968780219802A84
:100BE00008D2084422464146FFF785FB6878204436
:100BF00068700FE0C0F18002D7B208443A4641461F
:100C0000FFF779FBE61B08EB070132460348FFF7C5
:100C100072FB6E702046DCE75C0200207C14012031
:100C2000014800F047BA0000A0040020014800F08D
:100C300041BA00000005002001681823CAB2103A2A
:100C4000B2FBF3F2054B6FF30901032A9B5CC3650A
:100C500000D9091D816508467047000070BB020875
:100C600010B5014600208B698A6A4FF0C07453B1F9
:100C7000B3F5005F15D072B1012A0CD0022A0AD058
:100C8000032A09D104E01AB1012A06D0022A03D1AD
:100C9000C96AC90100D5012010BDC96AA142FAD0B4
:100CA00010BD002AF7D0012AF2D0022AF3D0032A7D
:100CB000F3D010BD30B50468256825F48025256083
:100CC000046863608368402B036803D09960006800
:100CD000C26030BD9A600068C16030BD70470000DE
:100CE0002DE9F047ADF5027D17468946044680A8F8
:100CF00002F006FD0028FAD12046FFF740FB82B241
:100D00004FF47A7321461F4801F086FE002400F05C
:100D10004BFC0546A0464FF4FF7A6E4613E000BF39
:100D200000F042FC05469DF800020A2815D00D2867
:100D300004D0544502D83055641CA4B280A802F0F7
:100D4000DFFC0028ECD100F02FFC401BB842F5D3AB
:100D500002200DF5027DBDE8F08706F80480B9F1A8
:100D6000000006D001466846FFF7F7FA08B10020F8
:100D7000EFE705A16846FFF7F0FA08B10120E8E7C0
:100D80000024DBE7100400204552524F52000000BF
:100D90000A4601A1FFF7A4BF4F4B00002DE9F84F11
:100DA00089468346FFF7EBFA04000AD023F00AFFD6
:100DB00082462146FFF7C6FA002500F0F5FB0746FC
:100DC0002BE00120BDE8F88F684602F099FC20B3C3
:100DD00095FBF4F004FB10519DF800206D1C0AF8FF
:100DE0000120A54219DB281B90FBF4F104FB110044
:100DF000261AA4EB0608002E05DD5044324659465B
:100E0000FFF7D2FA48B9B8F1000F10DD0BEB06017D
:100E100042465046FFF7C8FA48B100F0C5FBC11B77
:100E20004945D1D350460FF0BDFF0020CAE75046D8
:100E30000FF0B8FFC5E772B6FEE70000094810B52D
:100E4000017859B1C1680022052909DAD0E90134D5
:100E50009C4205D2491CC160012010BD002010BD7C
:100E6000C260FBE7640200202DE9F0410F4E4FF411
:100E70008005A0B00E4F2C464FF40008756080220C
:100E80002146684602F088FC0098B84203D18034BD
:100E900074604445F3D37068404500D37560012009
:100EA000B560307020B0BDE8F08100006402002021
:100EB000EFBEADDE10B50F48A0B00178002916D006
:100EC0008468803CB4F5800F11D3802221466846A7
:100ED00002F062FC08490098884208D1801700900F
:100EE00002F0E2FD80222146684602F083FC20B039
:100EF00010BD000064020020EFBEADDE2DE9F04120
:100F00001D4C0646A0B02078884648B120460025F2
:100F10002169AF1E4068052907DB2561A06008E054
:100F20004FF0FF3020B0BDE8F081A168814202D3CC
:100F300025613846F6E78022684602F02DFC0F490D
:100F40000098884202D06068A060F1E7BDF80820F0
:100F500030460DF10A01FFF7CEF9BDF8080035540F
:100F6000BDF80810A8F80010A0688030A0602069C3
:100F7000401C20610020D5E764020020EFBEADDEFA
:100F800070B51C4C0646A0B020780D4628B1742DD3
:100F900006D96FF0010020B070BD4FF0FF30FAE7C6
:100FA000FF2280216846FFF7C6F91348009000F041
:100FB000FBFA0190ADF808502A4631460DF10A00BF
:100FC000FFF799F96068B0F5000F04D34FF4800083
:100FD000606002F0EFFC6068010501D102F0EAFCFC
:100FE00080226846616802F005FC606880306060BD
:100FF0000020D0E764020020EFBEADDE2DE9F04115
:101000000446876D00F0D0FA064694F835000025B6
:10101000022806D08020606584F834500120BDE8A5
:10102000F0812068016821F01601016020684169A3
:1010300021F080014161206C08B9A06C20B12068CA
:10104000016821F0080101602068016821F00101B8
:1010500001600CE000F0A8FA801B052807D92020C9
:101060006065032084F8350084F83450D7E72068A1
:101070000068C007EED194F85C103F208840B8604B
:10108000012084F8350084F834500020C7E790F838
:101090003510022903D080214165012070470521C8
:1010A00080F835100068016821F00101016000201E
:1010B000704700002DE9F84304464FF00009CDF8D1
:1010C000009063484FF41651A56D0068B0FBF1F72E
:1010D0002E6894F85C10082000FA01F131420FD01C
:1010E00021680A6852070BD50A6822F004020A60D8
:1010F00094F85C108840A860606D40F00100606565
:1011000094F85C104FF0010808FA01F0304208D062
:1011100021684969090604D5A860606D40F00200A5
:10112000606594F85C1004208840304208D0216843
:101130000968890704D5A860606D40F00400606507
:1011400094F85C1010208840304218D0216809685B
:10115000090714D5A86020680168490304D5006810
:10116000000308D5A16C07E00168C90503D4016834
:1011700021F008010160216C09B12046884794F8EC
:101180005C1020208840304231D021680968C906AF
:101190002DD5A86094F8350005282068016806D090
:1011A000490347D5006800031DD4616C1CE021F0A1
:1011B000160101602068416921F080014161206CC5
:1011C00008B9A06C20B12068016821F00801016015
:1011D00094F85C103F208840A86084F8358084F83B
:1011E0003490216D1FE0E16B09B120468847606DA6
:1011F00000282BD0606DC00714D0052084F835007E
:101200002068016821F0010101600098401C0090F5
:10121000B84203D820680068C007F6D184F835804A
:1012200084F83490E16C002910D001B02046BDE86C
:10123000F04308470168C905D5D4016821F01001C1
:10124000016084F8358084F83490CCE7BDE8F883F9
:10125000100000202DE9F041044600F0A5F90646F3
:101260005CB1022084F83500002584F834502068F1
:10127000016821F0010101600DE00120BDE8F0816D
:1012800000F092F9801B052805D920206065032015
:1012900084F83500F2E720680068C007F0D12268C2
:1012A000116820480140D4E901031843D4E903360A
:1012B0003343184363691843A3691843E369184328
:1012C000236A18430843616A042903D1D4E90B1344
:1012D00019430843106020684069666A20F00701DE
:1012E00030460E43012704280CD1A06A0643E06A69
:1012F00040B12046FFF7B4FC20B14020606584F87F
:101300003570BAE7206846612046FFF795FC94F8EF
:101310005C203F2191408160656584F83570002034
:10132000ACE700003F8010F02DE9F0410446866DE7
:1013300090F83400002501280DD0012084F83400F5
:1013400094F835700020012F07D084F8340002256E
:101350002846BDE8F0810220FBE7022784F83570BB
:1013600060652046FFF7A6FC94F85C103F2088409B
:10137000B0602068016841F016010160206C20B166
:101380002068016841F0080101602068016841F0AF
:1013900001010160DCE7000070B5044600F004F9CB
:1013A0000546601C02D004480078044400F0FCF8B4
:1013B000401BA042FAD370BD040000202DE9F84F75
:1013C000DFF8B8A10022012403254FF00F090AF12C
:1013D000040BAAF1040E00BF0B6804FA02F63340B6
:1013E000B34273D10F7907F00307012F01D0022F09
:1013F00016D187684FEA420805FA08FC27EA0C076D
:10140000D1F80CC00CFA08FC4CEA070CC0F808C074
:101410004768B7430E79C6F3001696403E434660D0
:101420000E79F643B6070DD0C768560005FA06FCDC
:1014300027EA0C07D1F808C00CFA06FC4CEA070CA6
:10144000C0F80CC00E7906F00306022E10D1D608A3
:1014500000EB8608D8F8206057074FEAD76C09FAE6
:101460000CF7BE430F6907FA0CF73743C8F8207032
:1014700006684FEA420C05FA0CF7BE430F7907F0F5
:10148000030707FA0CF7374307604E6816F4403F2E
:101490006DD03B4E376847F480473760366822F09E
:1014A000030706F480460096364E07EB060CDCF880
:1014B000086897073F0F09FA07F826EA0806DFF8D9
:1014C000C880404503D14FF000081EE04FE0DFF830
:1014D000BC80404502D14FF0010816E0DFF8B08033
:1014E000404502D14FF002080FE0DFF8A8804045E8
:1014F00002D14FF0030808E0DFF89C80404502D19C
:101500004FF0040801E04FF0070808FA07F848EA2E
:101510000608CCF80888DAF800605746D1F804C00D
:101520009E435FEACC2C00D51E433E60DBF8006092
:101530005F46D1F804C09E435FEA8C2C00D51E4361
:101540003E60DEF800607746D1F804C09E435FEA53
:101550008C3C00D51E433E60084F083F3E68D1F8E2
:1015600004C09E435FEACC3C00D51E433E60521C43
:10157000102AFFF431AFBDE8F88F0000083C0140AD
:1015800044380240003001400000024000040240A4
:1015900000080240000C0240001002400AB18161C4
:1015A00070470904FBE700000148806870470000AD
:1015B000040000200248816802781144816070476D
:1015C000040000200B4810B5016841F4007101606F
:1015D000016841F480610160016841F4807101603B
:1015E000032000F09FF80F2000F006F800F050F8FC
:1015F000002010BD003C024030B505461F4887B0B2
:101600000024016841F004010160006806A900F0AF
:101610000400009001A800F031F90498A8B100F08E
:101620004DF940001649174AB0FBF1F11648491E22
:10163000026040F2E732C0E90324C0E9011484618A
:1016400000F0E6FD040003D015E000F037F9E9E70B
:101650000D4800F029FE04000DD11E2000F034F8E2
:10166000102D07D2002229461E2000F03BF8074823
:10167000056000E0012407B0204630BD403802403C
:1016800040420F00000800406005002008000020D4
:101690000C4882B0016841F480410160006800F4A8
:1016A000804000900748001F016841F080510160B0
:1016B0000068002200F0805000900F21901E02B0C0
:1016C00000F010B844380240002809DB00F01F0287
:1016D000012191404009800000F1E020C0F8001194
:1016E00070470000F0B40E4B1B680C46C3F3022396
:1016F000C3F10705042D00D90425191D072901D2BE
:10170000002300E0DB1E012606FA05F1491E2140F8
:1017100099409E40761E16403143F0BC02F0D2BE86
:101720000CED00E0064900F0070208684FF6FF03E1
:10173000184040EA0220034A104308607047000046
:101740000CED00E00000FA052DE9F0470E4605001B
:1017500065D0DFF81481D8F80000F7B200F0070078
:10176000B04207D288F80070D8F8000000F00700F7
:10177000B04254D128683D4C810712D5400703D5AB
:10178000206840F4E05020602878000703D52068E6
:1017900040F4604020602068A96820F0F000084311
:1017A00020602878C0072DD03049686808390128A2
:1017B00012D0022813D0032811D009688907002904
:1017C0002DDA216821F0030101432160FFF7ECFECF
:1017D000814641F2883A0EE009688903EFE709681B
:1017E0008901ECE7FFF7E0FEA0EB0901514502D9C2
:1017F0000320BDE8F0872068696800F00C00B0EBBA
:10180000810FEFD1D8F80010404601F00701B14236
:1018100007D90770006800F00700B04201D001202E
:10182000E7E72878400705D52068E96820F4E0500C
:10183000084320602878000706D52068296920F42D
:10184000604040EAC100206000F058F82168084A72
:10185000C1F30311515CC84006490860064800689E
:10186000FFF7CAFE0020C4E7003C024008380240EF
:1018700078BB020810000020080000200F22026040
:101880000C4A136803F003034360136803F0F0038A
:101890008360136803F4E053C36012684FF4E053AD
:1018A00003EAD20202610448006800F00700086001
:1018B0007047000008380240003C024004480549D7
:1018C00000680968044AC1F38221515CC84070472E
:1018D000100000200838024088BB0208044805496F
:1018E00000680968044AC1F34231515CC84070473E
:1018F000100000200838024088BB0208154810B5C7
:10190000006810F00C02144813D01449042A0FD0B8
:10191000082A0ED10F4C241F2268236802F03F02D0
:101920005B0207D52068C0F38810A0FB010106E028
:10193000084610BD2168C1F38811A1FB00010023F6
:10194000FEF7A8FC2168C1F30141491C4900B0FB26
:10195000F1F010BD083802400024F40040787D0109
:101960002DE9F84F04006ED02078DFF84C93C007C3
:10197000A9F104054AD009F104000168C1F381010D
:10198000012908D00068C0F3810002280AD1D9F8E3
:101990000000400206D52868800337D5606800281B
:1019A000E1D033E06068B0F5803F10D0B0F5A02FF3
:1019B000286810D020F480302860286820F4802027
:1019C00028606068A8B1FFF7EFFD06460DE02868C3
:1019D00040F48030F4E740F480202860F7E700BF4F
:1019E000FFF7E2FD801B642873D828688003F7D5D1
:1019F0000CE0FFF7D9FD064605E000BFFFF7D4FD78
:101A0000801B6428F0D828688003F7D42078DFF89A
:101A1000AC8280074FF0000A3ED5A748001D016840
:101A200011F00C0F08D00068C0F3810002280BD120
:101A3000D9F80000400207D42868800716D5E0686E
:101A4000012800D112E033E1E068B8B10120C8F804
:101A50000000FFF7A9FD064605E000BFFFF7A4FD63
:101A6000801B0228C0D828688007F7D5286821691C
:101A700020F0F80040EAC10028600DE0C8F800A09E
:101A8000FFF792FD064604E0FFF78EFD801B02285B
:101A90001FD828688007F7D42078000722D5864F02
:101AA00087486169703771B101210160FFF77CFDE2
:101AB000064604E0FFF778FD801B022809D8386845
:101AC0008007F7D50EE0C0F800A0FFF76DFD0646D1
:101AD00005E082E0FFF768FD801B02287DD83868AA
:101AE0008007F7D42078400768D5DFF8CCB100270D
:101AF0000BF13C0BDBF80000C0000BD4DBF800104E
:101B000041F08051CBF80010DBF80000012700F015
:101B1000805000906B4E3068C00510D4306840F49F
:101B200080703060FFF740FD009005E0FFF73CFD5E
:101B30000099401A022850D83068C005F6D55E4E8C
:101B4000A0686C3601280FD00528306810D020F02E
:101B500001003060306820F004003060A068B8B147
:101B6000FFF722FD00900FE0306840F00100F4E73D
:101B700040F004003060F7E7FFF716FD0099411AC6
:101B800041F28830814266D830688007F4D50EE093
:101B9000FFF70AFD009007E0FFF706FD0099411AE4
:101BA00041F28830814256D830688007F4D42FB192
:101BB000DBF8001021F08051CBF80010A069C8B309
:101BC0003D49091D0968C1F3810102294AD0022853
:101BD000504607D0C8F8600000E03CE0FFF7E4FCA6
:101BE00004463BE04746C8F86000FFF7DDFC0646C8
:101BF00005E000BFFFF7D8FC801B02282BD828681F
:101C00008001F7D4D4E907010843A16A2E4A4908A4
:101C100002EB0141626A41EA8211084394F82C10F8
:101C200040EA0161C9F8001001203866FFF7BCFCEA
:101C3000044606E03EE000BFFFF7B6FC001B0228AA
:101C400009D828688001F7D534E000BFFFF7ACFC65
:101C5000001B022802D90320BDE8F88F2868800104
:101C6000F4D427E00128F7D0D9F80000E26900F4A5
:101C7000800191421CD1226A00F03F01914217D1AC
:101C800047F6C071626A0140B1EB821F10D1A26AAF
:101C90004FF0FF3300F4403103EB5202B1EB024F3F
:101CA00006D194F82C1000F07060B0EB016F01D0F9
:101CB0000120D1E70020CFE704380240000047426E
:101CC000800E4742007000400000FFFF70B5040026
:101CD00009D0606A002540B125616561A56294F86C
:101CE000510040B10CE0012070BD6068B0F5827F0A
:101CF000F4D0E561F2E784F85050204600F044F853
:101D0000022084F851002068016821F04001016040
:101D1000A088218900F4827001F404410843A1895C
:101D200001F400610843217C01F002010843217D98
:101D300001F001010843218B01F400710843217F68
:101D400001F03801084394F8201001F080010843A5
:101D5000218D01F40051084321680860A069042125
:101D600001EA104094F8241001F0100108432168A2
:101D700048602068C16921F40061C1616565012086
:101D800084F85100002070BD70B586B0044614215F
:101D90006846FEF7D7FA234E226800212248022324
:101DA00003240525B2421AD11F4A1432166846F49C
:101DB00080561660126802F480520592026842F062
:101DC00001020260006802AA00F00100059082E8AA
:101DD0003200E020CDE90003694614481DE0144EAE
:101DE000B2421CD1104A1032166846F48046166082
:101DF000126802F480420592026842F00202026018
:101E0000006802AA00F00200059082E832004FF458
:101E10006040CDE9000369460648FFF7CFFA06B0F7
:101E200070BD000000300140303802400000024028
:101E300000380040000402402DE9F84F984616464D
:101E40008A460446FFF7B0FB814694F8510001280A
:101E50001ED1BAF1000F73D0002E71D094F850004B
:101E6000012815D0012784F85070032084F8510010
:101E700000256565C4F830A0A686E686A563A5871B
:101E8000E58765642564A068B0F5004F03D00CE0D9
:101E90000220BDE8F88F2068016821F04001016050
:101EA0002068016841F480410160206801684906AA
:101EB00003D4016841F040010160E068B0F5006FB3
:101EC000606803D048B3012E27D047E008B1012E47
:101ED0001FD1206B21680088C86006E020688168F7
:101EE000890709D5216B0988C160206B801C20639C
:101EF000E08E401EE0860CE0FFF756FBA0EB0901E8
:101F0000414503D3B8F1FF3F03D035E0B8F1000FEE
:101F100032D0E08E0028E1D123E0206B21680078E8
:101F2000087306E02068816889070AD5216B097863
:101F30000173206B401C2063E08E401EE0860DE0A4
:101F40002BE0FFF731FBA0EB0901414503D3B8F1CA
:101F5000FF3F03D010E0B8F1000F0DD0E08E002855
:101F6000E0D14A464146204601F0E0FB08B120207E
:101F70006065A06830B109E084F8517084F8505071
:101F8000032086E72068C1688068009084F851705B
:101F900004F8505F60680028F3D0012079E72DE94C
:101FA000FF4F81B01D46934604464FF001090E9E37
:101FB000FFF7FAFA074694F851006168012806D045
:101FC000B1F5827F3CD1A168C9BB042838D1029801
:101FD000002871D0BBF1000FFBD0002DF9D094F890
:101FE000500001282CD04FF0010A84F850A094F83A
:101FF0005100042802D0052084F851004FF0000859
:10200000C4F85480C4F838B0E587A58702992163E5
:10201000E586A586C4F84080C4F84480206801683D
:10202000490603D4016841F040010160E068B0F561
:10203000006F606808D0F0B3012D49D081E0FFE760
:10204000022005B0BDE8F08F08B1012D39D1206B19
:1020500021680088C860206B801C2063E08E401ED1
:10206000E0862EE02068816889070FD5E18E69B18E
:10207000B9F1010F0AD1216B0988C160206B801C66
:102080002063E08E401EE0864FF0000920688168E2
:10209000C9070CD0E18F51B1C068A16B0880A06B5B
:1020A000801CA063E08F401EE0874FF00109FFF71E
:1020B0007BFAC01B01E00BE067E0B04201D3701C6B
:1020C00050D1E08E0028CDD1E08F0028CAD13EE06B
:1020D000206B216800780873206B401C2063E08E21
:1020E000401EE0862DE02068816889070FD5E18ECB
:1020F00069B1B9F1010F0AD1216B09780173206B25
:10210000401C2063E08E401EE0864FF000092068EE
:102110008168C9070CD0E18F51B1C068A16B08700C
:10212000A06B401CA063E08F401EE0874FF00109C8
:10213000FFF73AFAC01BB04202D3701C01D011E085
:1021400086B1E08E0028CED1E08F0028CBD13A4670
:102150003146204601F0EAFA50B12020606584F84B
:10216000508012E084F851A084F85080032068E782
:10217000A06818B92068C1688068009084F851A0F0
:1021800084F85080606D0028F1D0012059E7704735
:102190007047000070B590F83C20012A2CD0012433
:1021A00080F83C40022280F83D2003685A689D6810
:1021B00022F070060A6832435A60104B02689A4255
:1021C0000ED0B2F1804F0BD00D4B9A4208D00D4B80
:1021D0009A4205D00C4B9A4202D00C4B9A4204D141
:1021E000496825F080031943916080F83D40002143
:1021F00080F83C10084670BD022070BD0000014010
:102200000004004000080040000C00400040014075
:1022100010B5040003D094F83D0010B107E0012090
:1022200010BD002084F83C00204600F01FF802207A
:1022300084F83D00211D206801F082FD012084F812
:10224000460084F83E0084F83F0084F8400084F89B
:10225000410084F8420084F8430084F8440084F884
:10226000450084F83D00002010BD000008B500685E
:102270000B49884212D10B48016841F0020101600C
:102280000068002200F00200009005211D20FFF7E9
:1022900029FABDE808401D20FFF716BA08BD000066
:1022A000000400404038024090F83D10012901D060
:1022B00001207047022180F83D100168CA6842F091
:1022C0000102CA6000680E4988420ED0B0F1804F0A
:1022D0000BD00C49884208D00B49884205D00B49E5
:1022E000884202D00A49884204D1816801F007017E
:1022F000062903D0016841F0010101600020704708
:10230000000001400004004000080040000C0040B4
:102310000040014070B5044690F83C0000250128BB
:1023200017D0012684F83C60022084F83D00206824
:10233000826822F0770222F47F4282600868502887
:1023400038D00DDC20284FD005DC90B3102811D1F7
:102350004AE0022070BD302846D040280AD13BE038
:1023600060282FD070280DD0B0F5805F03D0B0F575
:10237000005F12D0012584F83D60002084F83C0005
:10238000284670BDCB68D1E90121206801F028FD05
:102390002068816841F0770109E0CB68D1E901212B
:1023A000206801F01DFD2068816841F48041816052
:1023B000E1E719E0CA684968206801F023FD50216F
:1023C000206806E0CA684968206801F02CFD602199
:1023D000206801F00FFDCEE7CA684968206801F067
:1023E00011FD40212068F4E7226801461046F0E71D
:1023F00070472DE9F04104460068C66805694FF052
:102400000007A90713D5B10711D5F91E01610120F5
:102410002077206880698007204602D0FFF7E8FF18
:1024200004E000F07EF8204600F07CF8277768078B
:1024300016D5700714D521686FF0040008610220DA
:1024400020772068806910F4407F204602D0FFF793
:10245000CFFF04E000F065F8204600F063F827772E
:10246000280715D5300713D521686FF008000861DB
:10247000042020772068C0698007204602D0FFF73B
:10248000B7FF04E000F04DF8204600F04BF8277746
:10249000E80616D5F00614D521686FF01000086123
:1024A000082020772068C06910F4407F204602D0C1
:1024B000FFF79EFF04E000F034F8204600F032F809
:1024C0002777E80708D0F00706D021686FF00100F1
:1024D0000861204600F028F8280608D5300606D501
:1024E00021686FF0800008612046FFF750FE680603
:1024F00008D5700606D521686FF0400008612046B7
:1025000000F028F8A8060AD5B00608D521686FF0B3
:10251000200008612046BDE8F041FFF739BEBDE864
:10252000F08170477047000010B5044607488442A8
:1025300002D1012021F0DCFD05492068884203D149
:10254000BDE81040FFF736B810BD0000C8030020FA
:1025500000080040704738B5044690F84200202833
:1025600001D0022038BD51B14AB1012020630020C2
:102570006063204601F0AEFE216B012901D00120ED
:1025800038BD21680A684968009121680C3151E81A
:10259000002F42F0100241E80023002BF5D138BD96
:1025A000094A10B590420ED1C9B20848FEF708FB9F
:1025B000142206490448FFF7CEFF05480068016869
:1025C00021F00801016010BD100400200403002068
:1025D000A004002070470000F8B5016804460868B0
:1025E000CA684B6910F00F0F4FF0000559D003F087
:1025F000010602F49077374365D0C10705D0D105B5
:1026000003D5616C41F001016164410705D5D9072B
:1026100003D0616C41F002016164810705D5D907DF
:1026200003D0616C41F004016164010707D502F039
:102630002001314303D0616C41F008016164616C99
:1026400000293AD0800604D5900602D5204601F034
:102650005AFD20684069616CC0F38010090700D4FE
:1026600060B3204601F01AFD20684069400621D57C
:102670002068143050E8001F21F0400140E80012AB
:10268000002AF5D1E06BA8B172490165E06BFEF755
:10269000FEFC002811D0E06B016D01B0BDE8F040F8
:1026A000084783060FD593060DD52046BDE8F840B0
:1026B00001F029BD2046FFF78DFFF8BD2046FFF74A
:1026C00089FF6564F8BD266B2023012E7ED1C606E6
:1026D0007CD5D6067AD508684868009048694FF0DE
:1026E000020640064DD5E26B106840684FF48077D3
:1026F0000004000C3AD0A18D814237D9E085D06921
:10270000B8422DD020680C3050E8001F21F48071B1
:1027100040E80012002AF5D12068143050E8001F6C
:1027200021F0010140E80012002AF5D120681430A0
:1027300050E8001F21F0400140E80012002AF5D1C6
:1027400084F84230256320680C3050E8001F21F0E7
:10275000100140E80012002AF5D1E06BFEF74EFCB4
:102760006663A08DE18D401A81B206E0A18D8142A1
:10277000A8D1D069B842A5D166632046FFF710FF03
:10278000F8BDA08DE18D401A81B2E08D0028F7D010
:102790000029F5D020680C3050E8002F22F4907208
:1027A00040E80027002FF5D12068143050E8002FB2
:1027B00022F0010240E80027002FF5D184F84230D2
:1027C000256320680C3050E8002F00E006E022F07E
:1027D000100240E80023002BF3D1CDE705062BD5EE
:1027E000150629D594F841002128C9D1A068B0F573
:1027F000805F01D12069B0B1206A411C216221684B
:1028000000784860E08C401E0004000CE084B7D1E2
:102810002068C16821F08001C1602068C16841F072
:102820004001C160F8BD206A0088C0F3080048601C
:10283000206A801C2062E5E74006F3D55006F1D5FA
:10284000CA68204622F04002CA6084F8413000F095
:1028500033F9F8BDA13F000870B5040004D094F826
:102860004100002510B106E0012070BD84F8405001
:10287000204600F023F8242084F841002068C16835
:1028800021F40051C160204601F09EFC20680169DE
:1028900021F4904101612068416921F02A014161E0
:1028A0002068C16841F40051C1606564202084F84B
:1028B000410084F842006563002070BD2DE9F047B7
:1028C00086B0054614216846FDF73CFDDFF82CC1B3
:1028D00029684B480226032707234A4A00246145FA
:1028E00062D147491431D1F800C04CF0100CC1F846
:1028F00000C0096801F010010591016841F0010173
:10290000016000680DF1080900F001000590501504
:10291000CDE900060120984689E881016946924682
:102920001046FEF74BFD50460DF1080A4FF4806942
:102930008AE89001CDE900966946FEF73FFD334EE7
:1029400031484FF000673060C6E90174C6E90349B9
:102950007461B461F461346230467462FEF77AFCEB
:1029600008B1FEF768FAEE63B563284E2648603674
:102970007830E6E802074020A6E81102234846F82E
:1029800014496030B461F46134627462FEF762FC31
:1029900008B1FEF750FAAE63002205212520B56389
:1029A000FEF7A0FE252024E0194DA94223D11449A9
:1029B00010310D6845F400350D60096801F40031EF
:1029C0000591016841F0010101600068029400F086
:1029D000010005900C20CDE90006CDE9037369469E
:1029E0001046FEF7EBFC002205212620FEF77AFEBA
:1029F0002620FEF769FE06B0BDE8F0870010014012
:102A0000303802400000024040640240A004002030
:102A100000440040704770472DE9F843044690F8A1
:102A20004100984616460D46202802D00220BDE8F7
:102A3000F88385B17EB100206064212084F84100D4
:102A4000FEF7B2FDA6848146E684A0682027B0F593
:102A5000805F02D003E00120E9E7206910B12E4633
:102A600000250EE000260CE08021204601F082FCCB
:102A7000A8B9C6B116F8010B21684860E08C401E69
:102A8000E084E08C4B464FF00002CDF80080002837
:102A9000EAD14FF04001204601F06CFC40B184F8CF
:102AA00041700320C3E735F8020BC0F30800E3E7E9
:102AB00084F841700020BAE77047FEE770B5974D83
:102AC0004FF40064002221462846FEF767FD64208B
:102AD000FEF762FC012221462846FEF75FFD6420D6
:102AE000FEF75AFCCF2000F069F9002000F04CF905
:102AF000C12000F049F9302000F046F9ED2000F047
:102B00005DF9642000F040F9032000F03DF9122047
:102B100000F03AF9812000F037F9E82000F04EF992
:102B2000852000F031F9002000F02EF97A2000F025
:102B30002BF9CB2000F042F9392000F025F92C20A8
:102B400000F022F9002000F01FF9342000F01CF9F9
:102B5000022000F019F9F72000F030F9202000F0F1
:102B600013F9EA2000F02AF9002000F00DF9002006
:102B700000F00AF9C02000F021F9102000F004F95B
:102B8000C12000F01BF9102000F0FEF8C52000F075
:102B900015F9452000F0F8F8152000F0F5F8C720E9
:102BA00000F00CF9902000F0EFF8362000F006F964
:102BB000682000F0E9F82A2000F000F9002000F079
:102BC000E3F8002000F0E0F8012000F0DDF83F20FD
:102BD00000F0DAF82B2000F0F1F8002000F0D4F833
:102BE000002000F0D1F8002000F0CEF8EF2000F037
:102BF000CBF83A2000F0E2F8552000F0C5F8B120FB
:102C000000F0DCF8002000F0BFF81A2000F0BCF85B
:102C1000B62000F0D3F80A2000F0B6F8A22000F0A9
:102C2000B3F8F22000F0CAF8002000F0ADF826203A
:102C300000F0C4F8012000F0A7F8E02000F0BEF892
:102C40000F2000F0A1F8292000F09EF8242000F0C9
:102C50009BF80C2000F098F80E2000F095F8092061
:102C600000F092F84E2000F08FF8782000F08CF8F9
:102C70003C2000F089F8092000F086F8142000F0CC
:102C800083F8052000F080F8172000F07DF811206F
:102C900000F07AF8002000F077F8E12000F08EF8DC
:102CA000002000F071F8162000F06EF81B2000F0F4
:102CB0006BF8042000F068F8112000F065F8072098
:102CC00000F062F8312000F05FF8332000F05CF88B
:102CD000422000F059F8052000F056F80F2000F0CF
:102CE00053F80B2000F050F8282000F04DF82F206A
:102CF00000F04AF80F2000F047F8112000F05EF8CD
:102D00007820FEF749FB292000F058F82846BDE856
:102D1000704001221102FEF741BC00000000024099
:102D200001B56423012269460148FFF785F808BD13
:102D3000180300202DE9F04107461C4615460E46B3
:102D40002A2000F03BF8380A00F01EF8F8B200F034
:102D50001BF8280A00F018F8E8B200F015F82B204C
:102D600000F02CF8300A00F00FF8F0B200F00CF888
:102D7000200A00F009F8E0B200F006F8BDE8F041E2
:102D80002C2000F01BB8000070B50B4C054600224B
:102D900040212046FEF702FC012280212046FEF75A
:102DA000FDFB2846FFF7BCFF2046BDE8704001222E
:102DB0004021FEF7F3BB00000004024070B50B4C4D
:102DC0000546002240212046FEF7E8FB0022802134
:102DD0002046FEF7E3FB2846FFF7A2FF2046BDE8AA
:102DE000704001224021FEF7D9BB000000040240E0
:102DF00070B5DDE90456FFF79DFF0E4C002240211F
:102E00002046FEF7CBFB012280212046FEF7C6FBC1
:102E10004FF6FF7000EA46024FF0FF33294606489E
:102E2000FFF70AF82046BDE8704001224021FEF776
:102E3000B5BB00000004024018030020ADF5047D7E
:102E400041F2883027F0FAFD3B4F3C4C4FF0FF3801
:102E500040F6B8394146A06828F004FB4A4680A9EC
:102E6000606828F063FA012860D12078F0B300256B
:102E70004FF40046DFF8C8A04FF4487B1AE082A95F
:102E80006846FEF73BF810B122F006FA17E0002280
:102E900010213846FEF782FB012231465046FEF7EC
:102EA0007DFB684600F04AF9FEF704F858466D1CB1
:102EB00027F0C4FDFDF7C2FF08B1052DDFDBDDED16
:102EC000810A9DED800A00F099F90122102138460F
:102ED000FEF764FB002208213846FEF75FFB022361
:102EE000002280A9E06828F011F919E0FFE7819835
:102EF000FDF74EFC05460E468098FDF749FC41EC77
:102F0000100BCDE9005653EC102B0EA102A801F0D6
:102F1000C5FA02A8FDF733FA81B202A8FEF730F82D
:102F200000231A461946A06828F0F0F84FF4FA601A
:102F300027F084FD8EE7000000040240140000200A
:102F4000000002407B2274656D7065726174757259
:102F500065223A252E31662C227368696475223AFF
:102F6000252E31667D00000070B54FF4FA6590B0F3
:102F7000294637A0FDF70CFF41F28834224638A1DC
:102F80003AA0FDF7ADFE224640A142A0FDF7A8FE03
:102F90006423032249A14A48FFF73EFD6E103046E4
:102FA00027F04CFD2A4647A147A0FDF799FEC8200F
:102FB00027F044FD294648A0FDF7EAFE33460C22DF
:102FC00049A13F48FFF728FD29464BA0FDF7E6FE43
:102FD000A81027F033FD00F08BFB302247A1684694
:102FE000FDF789F92346302269463548FFF714FD7D
:102FF0004FF49675284627F021FD40F6B833042299
:103000000FA9002022F0AAFD484904280AD19DF802
:103010003C00202806D19DF83D00022802D19DF8F1
:103020003F0018B10020087010B070BD012008707A
:103030003FA20CAE07CA86E8070023460C220CA963
:103040001F48FFF7E9FC284627F0F8FCECE70000F2
:1030500041542B43574D4F44453D310D0A0000006C
:103060005749464920474F542049500041542B436B
:10307000574A41503D22616161222C223138323061
:1030800038393031373139220D0A0000434F4E4E66
:103090004543540041542B43495053544152543DED
:1030A00022544350222C2262656D66612E636F6D3F
:1030B000222C393530310D0A000000002B2B2B005B
:1030C000100400204F4B000041542B434950434C07
:1030D0004F53450D0A00000041542B4349504D4FBA
:1030E00044453D310D0A000041542B43495053459E
:1030F0004E440D0A000000003E000000102E0006A5
:103100004D514973647003020078002034316633F6
:10311000383736373230616434616538363064624E
:10312000303665333536333161383535140000209B
:10313000820A0001000573746D3332012DE9F043FA
:10314000C1B032278146E8468DF80070012405267B
:10315000FDF715F985B205F1090081B24FEA0800C3
:1031600001F07F02C909002902D000BF42F08002AD
:10317000025504F10104F3D14FF00001015504F1AF
:10318000010413A3065504F1010400EB04021B68BB
:103190001360177104F105042A46015504F1010476
:1031A0004FF00101015504F1010420444946FDF7A7
:1031B000A2F8601982B241F2883369460648FFF7E7
:1031C0002BFC4FF4FA7027F039FC41B0BDE8F083D6
:1031D00073746D33320000001004002008B505A0A0
:1031E0004FF4FA6300680090022269460248FFF734
:1031F00013FC08BDC0000000100400202DE9F041C0
:103200002DED028BC4B0B0EE408A10EE900AFDF7AF
:10321000BFFA04460D4618EE100AFDF7B9FA41EC64
:10322000100B28A153EC102B22A8CDE9004501F08A
:1032300035F932270DF108088DF8087001240526AC
:1032400022A8FDF79CF885B205F1090081B240463D
:1032500001F07F02C909002902D000BF42F08002BC
:10326000025504F10104F3D14FF00001015504F1BE
:1032700001041DA3065504F1010400EB04021B68C0
:103280001360177104F105042A46015504F1010485
:103290004FF00101015504F10104204422A9FDF77A
:1032A0002AF8601982B241F2883302A91048FFF768
:1032B000B3FB642027F0C2FB44B0BDEC028BBDE839
:1032C000F08100007B2274656D70657261747572A7
:1032D00065223A252E31662C227368696475223A7C
:1032E000252E31667D00000073746D3332000000BE
:1032F000100400200D4808B5016841F48001016008
:103300000068002200F48000009005213A20FEF7BA
:10331000E9F93A20FEF7D8F9002205214620FEF708
:10332000E1F9BDE808404620FEF7CEB9303802404A
:1033300010B5044A0021044822F062F903490860EC
:1033400010BD00004CBB0208D53B00080000002067
:103350002DE9F04186B014216846FCF7F3FF2248BE
:103360000024016841F080010160016801F08001E2
:103370000591016841F001010160016801F001015E
:103380000591016841F0020101600068174F00F0EB
:1033900002000590002203213846FEF7FFF80122C3
:1033A00041F2D8413846FEF7F9F8DFF844804FF48F
:1033B0000946002231464046FEF7F0F841F2DB4074
:1033C00000900125CDE90154694638460394FDF784
:1033D000F5FF0096CDE90154694640460394FDF798
:1033E000EDFF06B0BDE8F081303802400004024035
:1033F00000000240104810B50E4901604FF4827180
:10340000416000218160C1604FF400720161C0E938
:1034100005122822C0E90721416281620A21C162A6
:10342000FEF754FC002803D0BDE81040FDF703BDB3
:1034300010BD00000030014018030020104810B5F6
:103440000E4901604FF48271416000218160C160CA
:103450004FF400720161C0E905122822C0E907217A
:10346000416281620A21C162FEF730FC002803D06C
:10347000BDE81040FDF7DFBC10BD00000038004083
:103480007003002010B586B0002417480094019402
:103490000294039404941349059401606321C0E9E4
:1034A000011440F2E731C0E903148461FEF7B0FE75
:1034B00008B1FDF7C0FC4FF48050009069460A48FF
:1034C000FEF728FF08B1FDF7B6FC049404A90648EE
:1034D0000594FEF75FFE002801D0FDF7ACFC06B0B6
:1034E00010BD000000040040C80300200C4810B5C7
:1034F0000A4901604FF4E1314160002181600C22F2
:10350000C160C0E904128161C161FFF7A5F900281B
:1035100003D0BDE81040FDF78EBC10BD0010014087
:10352000100400200C4810B50A4901604FF41651F0
:103530004160002181600C22C160C0E904128161F8
:10354000C161FFF789F9002803D0BDE81040FDF7FD
:1035500072BC10BD0044004058040020FEE700008B
:103560001CB5094C6D464FF47A76291D684600F06B
:103570000DF8022300226946606827F0C7FD304637
:1035800027F05CFAF1E70000140000202DE9F04F6D
:1035900082462DED028B87B08B46012000248DF8EA
:1035A000000003218DF801108DF802408DF8030012
:1035B0008DF8044002208DF8050022460621684659
:1035C000FDF7BEFA8DF80600000A8DF807001421F9
:1035D00002A8FCF7B7FE414D012211462846FDF72F
:1035E000DDFF4FF47A73082269463D48FFF714FA6D
:1035F000012027F023FA002201212846FDF7CEFF03
:10360000FDF7D2FF8046FDF7CFFF354E05460DF1A1
:1036100008094FF448773068016889060AD5406880
:10362000142CC0B206D209F80400641CE4B2FDF701
:10363000BBFF054624B1FDF7B7FF401B322809D870
:10364000FDF7B2FFA0EB0800B84203D8012027F035
:10365000F5F9E0E7A01EC1B2012202A8FDF770FA59
:10366000092C38D19DF80810012934D19DF8091092
:10367000032930D19DF80A1004292CD19DF80F1090
:10368000C2B2914227D19DF81010B1EB102F22D178
:10369000BDF80B00BDF80D1040BA4CBAFDF733F879
:1036A0009FED108B53EC182BFCF7ADFFFDF7B4F832
:1036B000CAF800002046FDF726F853EC182BFCF75B
:1036C000A2FFFDF7A9F8CBF80000012007B0BDEC80
:1036D000028BBDE8F08F0020F8E7000000040240F4
:1036E000580400200000000000002440FEE7000015
:1036F0000248002101704170704700005C02002008
:1037000008490A784B789A4201D100207047064B4D
:103710009A5C02700878401C00F07F00087001205D
:10372000704700005C0200207C140120F8B51546AB
:103730000E460B46009204460122022100F0ECF9ED
:10374000A0B9134813490068B0FBF1F04FF47A7147
:10375000484300906068B0F5827F0DD13346002267
:1037600080212046009500F0D7F970B1606D40F0DF
:10377000200060650320F8BD009830B1401E009025
:1037800020688068C0430006F6D50020F8BD000020
:103790001000002000366E012DE9F041DFF8508066
:1037A00014460D4606464FF48057002239464046DF
:1037B000FDF7F4FE032000F025F9C5F3074000F003
:1037C00021F9C5F3072000F01DF9E8B200F01AF95D
:1037D00004E0FF2000F016F906F8010B641EA4B205
:1037E000F7D239464046BDE8F0410122FDF7D6BE8A
:1037F000000402402DE9F04707460E4611F0FF0095
:10380000C0F10001CDB24FEA122402F0FF094FF4DB
:10381000807A13D0F0B24042C0B206EB00080CB37D
:10382000501B80B2040A00F0FF092A463146384690
:1038300000F06EF83D44464657462AE06CB15546C6
:10384000641EE4B20CD32A463146384600F060F8D4
:1038500006F5807607F58077F2E73146384621E0B5
:103860004A46FAE7A945F8D9A9EB0500C4B22A46A9
:103870003146384600F04CF841467819224611E0AE
:103880003A463146284600F043F805F5807506F5BE
:103890008076641EE4B2F3D2B9F1000006D002468D
:1038A00031462846BDE8F04700F032B8BDE8F08761
:1038B00030B5144887B00024016841F0020101606E
:1038C0000068142100F0020005906846FCF73AFDFC
:1038D0004FF4805501200095CDE9010403940A4C72
:1038E00069462046FDF76AFD012229462046FDF77C
:1038F00055FE06480068016841F04001016007B0CC
:1039000030BD000030380240000402407003002047
:103910002DE9F04114460D46064600F0C5F8DFF8E3
:103920005C804FF48057002239464046FDF736FE52
:10393000022000F067F8C5F3074000F063F8C5F314
:10394000072000F05FF8E8B200F05CF8B4F5807F83
:1039500007D90BA000F092FDFF24307800F052F858
:10396000761C641EA4B2F8D2012239464046FDF707
:1039700015FEBDE8F04100F06FB800000004024001
:103980003C3C2D464C4153482D4552524F522D3E02
:103990003E205350495F464C4153485F5061676534
:1039A000577269746520746F6F206C61726765214E
:1039B0000A00000070B5044600F076F800F04CF8FC
:1039C0000F4E4FF48055002229463046FDF7E6FDA4
:1039D000202000F017F8C4F3074000F013F8C4F3F8
:1039E000072000F00FF8E0B200F00CF801222946A1
:1039F0003046FDF7D3FDBDE8704000F02DB8000063
:103A00000004024070B512494FF480550D60114B0F
:103A10001C6805E00A68561E0E6001D200200CE00A
:103A2000A268D2439207F5D4E0600D601A6808E0FE
:103A30000868431E0B6004D2012000F04BF8C0B2AE
:103A400070BD9068C043C007F2D1D068F7E70000AE
:103A5000600200207003002070B5114E4FF48055B5
:103A6000002229463046FDF799FD0520FFF7CAFFE1
:103A70000C4C2560FF20FFF7C5FF2268511E216016
:103A800004D2BDE87040042000F024B8C007F1D192
:103A900029463046BDE870400122FDF77FBD000099
:103AA000000402406002002070B5094D4FF48054BC
:103AB000002221462846FDF771FD0620FFF7A2FFF0
:103AC00021462846BDE870400122FDF767BD000091
:103AD0000004024010B5014602A000F0CFFC002017
:103AE00010BD00003C3C2D464C4153482D455252E0
:103AF0004F522D3E3E2053504920E7AD89E5BE850B
:103B0000E8B685E697B6216572726F72436F646599
:103B1000203D2025640A00002DE9F8431E46914609
:103B200088460446089DFDF73FFD401B351AFDF70A
:103B30003BFD074626480068C0F3CB3068430AE0E7
:103B4000701C09D0FDF730FDC01BA8420FD275B123
:103B50000098B8B3401E00902068816838EA0100E0
:103B600033D000214945EBD10020BDE8F88320681F
:103B7000416821F0E00141606068B0F5827F0BD1BF
:103B8000A068B0F5004F02D0B0F5806F04D1206876
:103B9000016821F040010160A06AB0F5005F09D121
:103BA0002068016821F4005101602068016841F437
:103BB00000510160012084F85100002084F8500079
:103BC0000320D2E7FFE70025C6E70121CAE700008E
:103BD000100000201CB500242020CDE90004420183
:103BE000234613A1144827F033FD1825CDE90054CE
:103BF0004FF400760023324610A1134827F028FD29
:103C0000CDE900540023324610A1134827F020FDCF
:103C1000CDE900540023324610A1134827F018FDC7
:103C2000002026F031FF012021F0AFFCFBE700006F
:103C300055495461736B0000E943000853656E7386
:103C40006F725461736B0000613500084E657477C4
:103C50006F726B5461736B00B50A00084D51545478
:103C60005461736B000000003D2E000810B54FF04A
:103C7000E020006927F044FD012803D0BDE8104092
:103C800027F08AB910BD000030B593B030216846E6
:103C9000FCF758FB14210CA8FCF754FB1C4800252A
:103CA000016841F080510160006800F0805011907F
:103CB0001848016841F4404101600068022400F4A2
:103CC0004040119001200090000401908001CDE956
:103CD00006400C2008906020CDE9090404200B90D8
:103CE0006846FDF73DFE08B172B6FEE70CA90F204D
:103CF00081E831004FF48050CDE90F0503210CA875
:103D0000FDF722FD002801D072B6FEE713B030BDEA
:103D100040380240007000400248016841F47001E0
:103D20000160704788ED00E00148FEF762BB0000CB
:103D3000C80300200148FEF75CBB000060050020BE
:103D4000F0B502681F4B204C204D214E4FF0804CA7
:103D5000984207D0604505D0A04203D0A84201D0C8
:103D6000B04203D122F070074A683A43984210D01B
:103D700060450ED0A0420CD0A8420AD0B04208D074
:103D8000144CA04205D0144CA04202D0134CA042C7
:103D900003D122F44074CA6822434C6922F08002A5
:103DA00022438C68C4620C688462984201D109691C
:103DB0000163016841F00401016001214161026079
:103DC000F0BD000000000140000400400008004079
:103DD000000C004000400140004401400048014008
:103DE00010B5846842EA032224F47F440A43224344
:103DF000826010BD826822F070020A4342F007011F
:103E00008160704710B5036A046A24F001040462FB
:103E1000846924F0F00444EA021423F00A020A43FD
:103E20008461026210BD10B5036A046A24F01004B4
:103E30000462846923F0A00324F4704444EA02324B
:103E400043EA01118261016210BD0000F0B5054630
:103E500085B00C46B12000F081F80746C12000F083
:103E60007DF8064603463A4624A1684600F016FB54
:103E70006846FCF784FA82B21E2369462348FEF79F
:103E8000CBFD322F26D940F6B830864222D200F040
:103E90005FF8064600F05FF8BE38C0EB801101EB1A
:103EA000002040F2AE6190FBF1F0AA3E06EB061155
:103EB000C1EB062140F2C26291FBF2F1A0F23F1089
:103EC00009B2404200B2C1F1EF010AB2002804DA9F
:103ED000002007E0002005B0F0BDB0F5A07F01DBB9
:103EE00040F23F10002A01DA002202E0F02A00DB53
:103EF000EF22288022800120EDE700007A313D2565
:103F000064207A323D25640D0A0000005804002028
:103F100010B5012291020548FDF740FB0A20FDF78C
:103F20003BFABDE81040D02000F018B80004024071
:103F300001B582B064200090012301AA02A90348C0
:103F4000FEF72DF89DF804000EBD000018030020B8
:103F5000D02000F003B89020AFF3008070B50F4D73
:103F60000446012240212846FDF718FB2E150022A9
:103F700031462846FDF712FB2046FFF7D9FFFF2008
:103F8000FFF7D6FF0402FF20FFF7D2FF0443012210
:103F900031462846FDF702FB200970BD00040240AF
:103FA00010B5806B0021C185FEF714FB10BD70B504
:103FB000846B2068406994F84110C0F3C01000255C
:103FC000212904D118B1E584204600F08EF820683C
:103FD000406994F84210C0F38010222904D118B12E
:103FE000E585204600F05AF8606C40F010006064EF
:103FF0002046FEF7EFFA70BD10B50146806B0968E8
:1040000009684FF00002C9052ED4C28501680C3141
:1040100051E8003F23F4807341E80034002CF5D1CF
:104020000168143151E8003F23F0010341E80034F6
:10403000002CF5D10168143151E8003F23F0400312
:1040400041E80034002CF5D1202180F84210016BAA
:10405000012909D101680C3151E8003F23F0100318
:1040600041E80034002CF5D14263016B012902D0F4
:10407000FEF7D0FC10BD818DFEF792FA10BD10B591
:10408000806B01214163016B012902D0FEF7C3FC63
:1040900010BD818D4908FEF783FA10BD01680C310F
:1040A00051E8002F22F4907241E80023002BF5D153
:1040B0000168143151E8002F22F0010241E8002389
:1040C000002BF5D1016B012909D101680C3151E8B0
:1040D000002F22F0100241E80023002BF5D120210F
:1040E00080F8421000210163704701680C3151E8EB
:1040F000002F22F0C00241E80023002BF5D120213F
:1041000080F84110704708B590F84210222901D07C
:10411000022008BD82684FF480539A4201D10169A0
:1041200021B1816A9A421BD04AB10AE00268816AD1
:104130005268C2F308020A80816A891C08E0026999
:1041400072B10268526802F07F020A70816A491CEB
:104150008162C18D491E0904090CC18503D01BE091
:1041600002685268F1E70168CA6822F02002CA605A
:104170000168CA6822F48072CA6001684A6922F044
:1041800001024A61202180F8421000214163026B44
:10419000012A03D0FEF73EFC002008BD0163016840
:1041A0000C3151E8002F22F0100241E80023002BCF
:1041B000F5D101680A68D20602D50A6849680091FB
:1041C000818DFEF7EDF9E7E770B5044600680169F7
:1041D000E26821F44051114301612169A068E2695C
:1041E00008436169114308432168CA6849F20C63B6
:1041F0009A430243CA6020684169A26921F4407170
:104200001143416131492068884202D030498842D7
:1042100002D1FDF763FB01E0FDF750FBE2690023EB
:10422000192164253226B2F5004F626828D0A0FB20
:104230000101930F9200FCF72DF80146B0FBF5F059
:104240006FF01802504301EB800006EB0010B0FB4A
:10425000F5F000F0F002B1FBF5F002EB0012B1FB5B
:10426000F5F06FF01803584301EB800006EB0010E7
:10427000B0FBF5F000F00F0021681044886070BDBD
:10428000A0FB010192185B41FCF704F80146B0FB6A
:10429000F5F00201B1FBF5F06FF01803584301EBA4
:1042A000800006EBC000B0FBF5F000F0F80002EB78
:1042B0004002B1FBF5F0584301EB800006EBC00073
:1042C000B0FBF5F000F00700D6E700000010014059
:1042D0000014014038B581620446828500201346EF
:1042E0006064222284F84220E56B1F4AEA63E56B92
:1042F0001E4A2A64E56B1E4AEA64E26B10650A46B0
:104300002168E06B091DFDF70FF830B110206064E3
:10431000202084F84200012038BD206801684068F0
:104320000090206948B120680C3050E8001F41F42B
:10433000807140E80012002AF5D12068143050E85E
:10434000001F41F0010140E80012002AF5D1206869
:10435000143050E8001F41F0400140E80012002AEC
:10436000F5D1002038BD0000F93F00087F4000086B
:10437000AF3F00082DE9F843984617460D4604461E
:10438000089E24E0701C22D0FDF70EF9A0EB080077
:10439000B0421AD8CEB12068C168490717D5802D20
:1043A00015D0402D13D00168C94309070FD4016807
:1043B0000025406800902046FFF770FE08206064EA
:1043C00084F840500120BDE8F8830320FBE7206813
:1043D000006835EA000004D00020B842D2D00020A6
:1043E000F1E70120F9E700001CB5FEF767FBFFF7D6
:1043F0008FFD17F063F91DF085FA1DF0A5FA21F085
:1044000045F912F0EBFB27F089F9144D0746FF261A
:104410004FF0FF344FF47A7800226946E86826F0BE
:1044200085FF012803D19DEC020A21F0F7FA2878D4
:10443000B04203D02E78287821F040FB27F06EF9A7
:10444000C11BB1FBF8F0A04202D0044621F05EFB94
:104450001FF0DAFE052026F0F1FADDE71400002057
:104460000148FEF7B9B80000100400200148FEF72B
:10447000B3B8000058040020FEE700000FB4054B5D
:1044800010B503A9044A029802F06EF810BC5DF85A
:1044900014FB0000930D0108F80200200FB4084B34
:1044A00010B504A902AA039802F05EF8044602A916
:1044B000002002F0DCFB204610BC5DF814FB00007D
:1044C0006F6C00080907090E002804DB00F1E020EA
:1044D00080F80014704700F00F0000F1E02080F831
:1044E000141D704702E008C8121F08C1002AFAD143
:1044F00070477047002001E001C1121F002AFBD164
:10450000704770B5044600256FF02F0608E020685C
:10451000411C2160007805EB850106EB410145183F
:104520002068007800F036FC0028F0D1284670BDE5
:104530002DE9FF5F2DED020B2DED0A8B86B0B0EE5D
:10454000408AF0EE608A53EC182B51EC180BDDE931
:104550002058229EFCF730F911D19FEDCD0B51EC84
:10456000180B53EC102BFCF73FF908D39FEDCA0B47
:1045700051EC180B53EC102BFCF71EF911D2CDE9BE
:10458000005812AC029694E80F00B0EE480AF0EE24
:10459000680A00F089FA06B0BDEC0A8B06B0BDE8E7
:1045A000F09F9FEDBF0B51EC180B53EC102BFCF759
:1045B00003F908D24FF0010B51EC180B81F00041C8
:1045C00041EC180B01E04FF0000B70059FEDB6BBFE
:1045D00000D4062518EE900AB54A8DED008BC0F385
:1045E0000A54C0F31300104301909DED000B4FF0EF
:1045F000000A9FEDB01B51EC100B53EC112BA4F2F1
:10460000FF34FBF788FF9FEDAD1B53EC112BFBF73D
:1046100088FF41EC190B2046FCF764F89FEDA91BBD
:1046200053EC112BFBF77DFF9FEDA81B53EC112BD7
:10463000FBF7D0FE53EC192BFBF7CCFEFCF770F820
:104640000446FCF74FF807469FEDA21B009153EC80
:10465000112BFBF766FF9FEDA11B53EC112BFBF712
:10466000B9FEFCF75DF88146FCF73CF89FED9D1B19
:1046700053EC112BFBF755FF41EC190B009941EC62
:10468000107B9FED9A1B51EC100B53EC112BFBF799
:1046900048FF53EC192BFBF73EFF41EC190B53EC91
:1046A000192BFBF73EFF41EC1A0B4FEA095040F281
:1046B000FF3100EB01519FED8F0BCDE900A153ECD1
:1046C000102B51EC1A0BFBF79EFF53EC1B2BFBF747
:1046D00081FE41EC100B51EC1A0B53EC102BFBF745
:1046E00092FF9FED861B53EC112BFBF773FE41EC01
:1046F000100B51EC1A0B53EC102BFBF784FF53EC0F
:10470000192B41EC1A0B9FED7FCB51EC1C0BFBF7E7
:1047100002FF53EC1A2BFBF75DFE41EC1A0B53EC36
:104720001C2B51EC190BFBF7FCFE53EC1A2BFBF77F
:104730006AFF9FED761B53EC112BFBF74BFE9DEDB3
:10474000001B53EC112BFBF7ECFE41EC190B51EC69
:10475000180B8DED009B53EC192BFCF72DF808D2AC
:1047600053EC1B2B51EC190B641EFBF74CFFCDE9EE
:10477000000104F16300C72801D2042700E00527E7
:10478000300520D59FED630B51EC180B53EC102B2B
:10479000FCF72AF813D89FED610B51EC180B53EC82
:1047A000102BFCF709F80AD2A54202DD2D1B6D1E65
:1047B00000E00025002746F480663C4603E015B182
:1047C000700500D56D1EB84502D9A8EB070000E0C2
:1047D00000208146B00702D50FB14FF000094CB15F
:1047E0009DED000B51EC180B53EC102BFBF70BFF5E
:1047F00041EC180BDDF850A0BBF1000F05D051ECD7
:10480000180B81F0004141EC180B26F40060009574
:10481000CDE901900DF1480BB0EE480A9BE80F007E
:10482000F0EE680A00F040F9054617B305F10109FA
:104830002A46B00601D5452000E06520DDE9125189
:10484000159BA84700200A220521CDE902207F1EE2
:10485000CDE90471E00F002C00DA6442CDE900409C
:10486000DDE912014A46159B01F0C2FD0546B0077D
:1048700007D40AE02A46DDE912416D1C2020159B71
:10488000A047A5EB0A014145F4D3284683E6000082
:10489000FFFFFFFFFFFFEF7FFFFFFFFFFFFFEFFFC8
:1048A00000000000000000000000000000002440A4
:1048B0000000F03F000000000000F83F61436F631C
:1048C000A787D23FFB799F501344D33FB3C8608B77
:1048D000288AC63F71A379094F930A40000000005F
:1048E0000000E03FEF39FAFE422EE63F1655B5BB19
:1048F000B16B02400000000000002C4000000000EE
:10490000000018400000000000000040000000000F
:104910000000F03F2D431CEBE2361A3F0000000080
:1049200080842E412DE9FF5F82B00021DDE9043053
:10493000020DDDF840B0034318D044F61050A2F247
:10494000FF3242431514119801281FD0A5EB0B002C
:10495000401C5FEA000A4FF000064E4FDFF8389126
:10496000B046504615D5CAF1000413E01198012451
:104970004AA3012801D16FEA0B010298119AC0E9FC
:104980000031C0E9024206B0BDE8F09FCBF1000063
:10499000DFE704460021404A491842EB0450CDE9C4
:1049A000001012E0E00707D032463B464046494639
:1049B000FBF7B7FD8046894632463B46104619460E
:1049C000FBF7AFFD06460F466410002CEAD1DDE987
:1049D0000401DDE90023BAF1000F06DAFBF7A1FDBF
:1049E00042464B46FBF79DFD05E0FBF70CFE4246B9
:1049F0004B46FBF708FE04460E460022284BFBF709
:104A0000F3FE03D84FF0FF30014607E00022254BAC
:104A100020463146FBF7DEFCFBF7F5FF102409E0EA
:104A2000002C0ADB0A220023FBF734FC039B303204
:104A30001A55641E50EA0102F2D1641C039AC4F1B3
:104A400011031444119A012A03D0012208430DD105
:104A50000AE0084304D000204FF0110B119072E7D8
:104A6000A3EB0B056D1E0DE05B4504DD4FF000026E
:104A700005F1010504E003DA4FF00002A5F101059C
:104A8000002AECD002981199C0E90231C0E9004532
:104A900079E70000000014400000F03F3000000003
:104AA0000000F0430000E03F2DE9FF5F2DED020B19
:104AB0002DED068B8CB0B0EE408AF0EE608ADDE919
:104AC00023759FEDA19B002453EC182B51EC180B80
:104AD000DDF88880FBF770FE02D003209CA10AE07D
:104AE0009FED9C0B51EC180B53EC102BFBF764FE65
:104AF00009D2042099A1CDE90010CDE9027514ACCA
:104B000094E80F001DE19FED970B51EC180B53EC4F
:104B1000102BFBF769FE07D2680702D5042093A18A
:104B2000E9E7032093A1E6E79FED930B51EC180B07
:104B300053EC102BFBF758FE08D39FED910B51EC73
:104B4000180B53EC102BFBF737FE12D2CDF8008078
:104B5000CDE9017514ACB0EE480A94E80F00F0EE10
:104B6000680AFFF7E5FC0CB0BDEC068B06B0BDE8AB
:104B7000F09F4FF0000B53EC192B51EC180BFBF787
:104B80001BFE07D24FF0010B51EC180B81F00041D6
:104B900041EC180B680501D44FF006080DF1100A1E
:104BA000794E9FED7A9BB8F1090F07D930210AF8A9
:104BB0000410641CA8F10108202CF1D351EC180B4F
:104BC000FBF7AEFD8146FBF78DFD53EC182BFBF791
:104BD000A5FC41EC100B06EBC800009090ED001B0B
:104BE00051EC100B53EC112BFBF79BFC41EC1A0B17
:104BF000FBF7B5FD0646FBF786FD53EC1A2BFBF7DA
:104C00008DFC41EC1A0B53EC192BFBF7EDFD13D285
:104C1000761C3046FBF777FD41EC100B009890EDC9
:104C2000001B51EC100B53EC112BFBF7DDFD10D8E2
:104C3000002609F101090CE053EC192B51EC1A0B79
:104C4000FBF7BAFD05D306F00100401E304200D14B
:104C5000761CB8F1000002D00A22514625E04846F1
:104C6000FBF740FD53EC182BFBF758FC41EC180BFD
:104C700053EC192BFBF7B8FD06D953EC192B51EC6B
:104C8000180BFBF7B1FD1FD25FEAC9701CD009F108
:104C9000010919E0B6FBF2F302FB1363B6FBF2F66F
:104CA00030330B55401E641C2EB1202CF2D31BE078
:104CB0000A55641C00E03022202C15D2401EF7D289
:104CC0002E200AF80400641C0A205246202C0BD225
:104CD00099FBF0F300FB13913031115599FBF0F182
:104CE000641C5FEA0109F1D1A80711D4E8070FD0CD
:104CF0002FB105F00C0050EA0B0000D07F1E3020D1
:104D00005146BC4204D2202C13D20855641CF8E74B
:104D1000202C0ED2BBF1000F01D02D2106E0680738
:104D200001D52B2102E0280703D520210AF8041021
:104D3000641CCDF800A00395CDE9014714AE96E8B8
:104D40000F0001F0DAFB0EE7000000000000000099
:104D50006E616E00FFFFFFFFFFFFEFFF666E692DC4
:104D600000000000FFFFFFFFFFFFEF7F666E692B73
:104D700000000000666E69000000000065CDCD41B6
:104D80000000000065CDCDC19015030800000000B3
:104D90000000E03F3038092801D80120704700208A
:104DA0007047000010B54421074800F08DFE002236
:104DB0001E2106481FF0F6F9054CA06002F03AFBF0
:104DC0000020207010BD0000B0520020E9740008DF
:104DD000C40100202DE9F0470E46814617461146D2
:104DE000304600F01CF94FF0FF3A00287DD0002239
:104DF0003946304600F0BFF800284FF0000075D16A
:104E0000B6F90480B6F900305246A8EB0301491CFC
:104E10000AFA81F10FFA81FAB6F906C0B6F9021062
:104E2000ACEB010C0CF1010C02FA8CF2B7F802C0E9
:104E300012B2ACEB010C0FFA8CFCBCF1000F0EDDD2
:104E400063F30F0468F30F0501EB0C0061F31F44DB
:104E500060F31F45C9F800400120C9F80450B7F9B4
:104E600006107388CB1AD21A12B2002A13DDB6F9D3
:104E7000063099420FDA338863F30F04B38861F385
:104E80001F4463F30F05114461F31F4509EBC00193
:104E9000401C0C604D60B7F90220B6F902108A423E
:104EA00000DD1146B7F90630B6F90620934200DA64
:104EB0001A463B88B6F900C0521AA3EB0C031BB28A
:104EC00012B2002B10DD002A0EDD634463F30F05E0
:104ED0008B1863F31F456CF30F0409EBC00361F3F8
:104EE0001F441C605D60401C01E01AE017E0B7F948
:104EF000043036889F1BAAEB070636B2002E0EDD63
:104F000063F30F0461F31F44334463F30F0511444B
:104F100061F31F4509EBC001401C0C604D60BDE80A
:104F2000F0875046FBE770B5B1F90030B2F90040A8
:104F3000A34200DC23460380B1F90250B2F90240DB
:104F4000A54200DD2C464480B1F90460B2F904505A
:104F5000AE4200DA35468580B1F90610B2F9062076
:104F6000914200DB1146C1800120AB4201DC8C4242
:104F700000DD002070BDF8B50D460446B0F9000014
:104F8000B1F900101646884247DBB4F90210B5F9B2
:104F90000220914241DBB4F90410B5F9042091429A
:104FA0003BDCB4F90610B5F90620914235DC96B326
:104FB000ADF800006088ADF8020032466946284628
:104FC00000F099F8002827D0A088ADF8000060888C
:104FD000ADF8020032466946284600F08CF80028F9
:104FE0001AD02088ADF80000E088ADF80200324603
:104FF0006946284600F07FF800280DD0A088ADF85B
:105000000000E088ADF8020032466946284600F00C
:1050100072F8002800D00120F8BD0020F8BDB0F9DA
:105020000020B1F904309A4213DCB0F90420B1F940
:1050300000309A420DDBB0F90220B1F906309A42F5
:1050400007DCB0F90600B1F90210884201DB01204B
:10505000704700207047F8B50D460446B0F90400CB
:10506000B1F900101646884243DBB4F90600B5F9E1
:10507000021088423DDBB4F90000B5F90410884203
:1050800037DCB4F90210B5F90620914231DC76B371
:10509000ADF800006088ADF8020032466946284647
:1050A00000F029F818BBA088ADF800006088ADF8C2
:1050B000020032466946284600F01DF8B8B920883B
:1050C000ADF80000E088ADF8020032466946284697
:1050D00000F011F858B9A088ADF80000E088ADF8EC
:1050E000020032466946284600F005F808B1002063
:1050F000F8BD0120F8BD2DE9FC4114460E46B1F97A
:105100000020B0F9001005468A423ADBB5F90400E8
:10511000824236DCB6F90270B5F90220974230DBE4
:10512000B5F906309F422CDC002C75DD401A9A1A26
:10513000401C521C00B212B200EBD07002EBD272D3
:1051400040105210904200DB1046844200DD0446BD
:10515000ADF80010288800222044ADF804006888CB
:10516000ADF80200688831462044ADF80600684674
:10517000FFF7C1FF40B1BDF804002044ADF80400C2
:105180003FE00020BDE8FC81E8880022001BADF86C
:105190000200E888ADF8060031466846FFF7ABFF2D
:1051A00028B1BDF804002044ADF8040011E0A8883F
:1051B0000022001BADF80000A888ADF804003146BD
:1051C0006846FFF798FF50B1BDF80000001BADF82E
:1051D0000000BDF80200001BADF8020016E0688870
:1051E000ADF80200688800222044ADF80600314680
:1051F0006846FFF780FF70B1BDF80000001BADF8F6
:105200000000BDF806002044ADF8060031466846AF
:105210001CF05CFBB6E7FFE70120B3E710B5B1F97E
:105220000040B2F900309C4200DA23460380B1F915
:105230000240B2F902309C4200DA23464380B1F9C1
:105240000440B2F904309C4200DD23468380B1F96A
:105250000610B2F90620914200DC1146C18010BD53
:10526000F8B507461EF03AFF0025374C0646009574
:1052700037B1F868606038461FF062F8606802E095
:1052800011F02AFC606000691CF01CFA606840693B
:1052900008B11CF017FA6068C0691CF013FA606866
:1052A000006A1CF00FFA6068016991B11CF0B6FB4E
:1052B00021F01EFF21F044FC6068B0F85011D9B312
:1052C0000068017CC9071DD0C0684068D0B10027C4
:1052D00013E0A0F85051F8BDC11991F8301151B93F
:1052E00000F5AC7000F047FC616801EBC7010A6B88
:1052F0000260496B41607F1CBFB26068B0F850111A
:10530000B942E9D860684FF48071303017F078FE08
:105310006068202100F5987017F072FE6068A0F8B0
:10532000505130461EF0D4FE009060680068436A19
:1053300013B122680099984717F0E0FC00F032F8AA
:10534000BDE8F84000F002B88400002070B50A4DB6
:10535000002400BFC4EBC40655F8260008B117F0BE
:1053600041FD05EB86001C2117F04AFE641CE4B2E7
:10537000042CEFD370BD00008C530020084949680D
:105380000AE04A68824202D00A68824203D10A7E59
:1053900042F001020A7649690029F2D17047000003
:1053A00058000020704700000421014800F08CBB29
:1053B000A45200202021014800F086BBBC520020EE
:1053C0002DE9FF410446DDE90A671D004FF00000AA
:1053D00002D1B6F5807F2BD0039001900290ADF8FA
:1053E0000C100090ADF80410ADF80A20ADF80E20B6
:1053F0003B463246294668461CF0C8F93B463246D1
:10540000294601A81CF0C2F93B463246294602A8AB
:105410001CF0BCF93B463246294603A81CF0B6F9FD
:10542000BDF90000BDF90430984209DA054608E0EC
:105430002080491E6080A180521EE280BDE8FF816D
:105440001D46BDF90820BDF90C108A4201DA164646
:1054500000E00E46B54203DA984206DB184604E047
:105460008A4201DA104600E00846801E2080BDF91D
:105470000030BDF90420934201DD1D4600E01546D1
:10548000BDF90800BDF90C10884201DD064600E0B8
:105490000E46B54205DD934201DD194604E0114692
:1054A00002E0884200DD0146891CA180BDF902307E
:1054B000BDF90620934201DA1D4600E01546BDF90C
:1054C0000A00BDF90E10884201DA064600E00E46D9
:1054D000B54205DA934201DA194604E0114602E0CA
:1054E000884200DA0146891E6180BDF90230BDF9AB
:1054F0000620934201DD1D4600E01546BDF90A0075
:10550000BDF90E10884201DD064600E00E46B542A8
:1055100005DD934201DD194604E0114602E08842B0
:1055200000DD0146891CE18088E700002DE9F0419B
:1055300015460E460746114C1EF0D0FD80462B4600
:1055400032463946204615F0CBFC20B10020A0623F
:10555000E06950B110E02C21204617F051FD4FF0CA
:105560000040A0620020BDE8F08140461EF0B0FD82
:10557000E06108B90120E0612046F4E7E052002034
:1055800010B51421074800F09FFA15F06FFC40B1E8
:105590000549016005494160054981600549C160CF
:1055A00010BDFEE7C852002041A80108BDAB0108AC
:1055B0008DAD01080DA8010870B50D4604461021F7
:1055C000284617F01DFD20680078012804D0022825
:1055D00007D0042807D008E0A08A2880E08A6880E5
:1055E00003E0E06800E00A20686020684268002A62
:1055F00003D02946BDE87040104770BD2DE9FE4339
:105600000446808A10B9E08A002874D0D4F82C802F
:105610005FEA080010D120460AF09DFE5FEA00080C
:1056200069D020460DF054FA00220921404614F0BA
:105630004FFB607880075ED44FF4807900274E4698
:105640004546002128461AF03BF9384407B20021AC
:1056500028461AF053F9C11700EB1160001210FB35
:1056600006F006B2284619F027F90500E9D10FB96E
:105670004E450CD0784201B24FF4803090FBF6F0EA
:1056800002B26B4604F1140000951CF07FF8ADF8EF
:105690000450ADF8085094F8400000F00F000328C3
:1056A000404616D019F05AFA0646404619F010F94D
:1056B00003460C200090B4F91610324640460AF01A
:1056C000F1F9ADF80800404619F054F9C10713D0BC
:1056D00018E019F0D7F90646404619F073F902466A
:1056E00003200090B4F91410334640460AF0DAF96A
:1056F000ADF80400E7E736E0BDF90410002901DD4C
:10570000ADF80450810705D4BDF90410002901DA71
:10571000ADF80450410705D4BDF90810002901DD9A
:10572000ADF80850000705D4BDF90800002801DADB
:10573000ADF8085002AA01A9204622F075F8BDF97B
:105740000820BDF90410404600F08AFA607880070E
:1057500009D4208BBDF8041008442083608BBDF869
:10576000081008446083BDE8FE832DE9FC5F044611
:10577000C06A5FEA000B71D094F8400000076DD05A
:1057800015F040FE019000684021457E58461AF011
:10579000E1F94FF0000818B9A4F81E80A4F81C80A5
:1057A000584619F0CDF98246584619F0D0F9064608
:1057B00094F840004FF0640900F00F000C2802D06C
:1057C00003284CD09AE0A4F81C8056B1B4F91E50BE
:1057D000002715F017FE00684946407EC0F16400BE
:1057E00022E0E08BC5F1640110FB01F191FBF9F0BF
:1057F000E083584619F06CF80546584619F0AEF9A2
:1058000002460C200090B4F91E102B4658460AF0B0
:1058100049F9E083024600231EE07A1917B210FB13
:1058200005F292FBF1F215B2002DF6D1ADF8007041
:10583000A4F81E806A460021204621F0F5FF41F6BB
:10584000FF72BDF90030514258460AF01BFFBDF807
:1058500000100123084402B200214CE09AE0A4F8B1
:105860001E80BAF1000F0AD0B4F91C50002715F0C1
:10587000C9FD00684946407EC0F1640022E0A08B6B
:10588000C5F1640110FB01F191FBF9F0A0835846CA
:1058900019F098F80546584619F0F4F80346032025
:1058A0000090B4F91C102A4658460AF0FBF8A08371
:1058B000014600231EE07A1917B210FB05F292FB95
:1058C000F1F215B2002DF6D1ADF80070A4F81C80ED
:1058D00000226946204621F0A7FF41F6FF72BDF97C
:1058E0000030514258460AF045FEBDF80010012331
:1058F000084401B2002258461BF068FAA08B002829
:1059000048D1E08B002845D1C6B9584619F026F990
:105910000546584618F0DCFF002D06DC00280DDD9A
:10592000002D02DA01232A4604E0002806DA0123CA
:10593000404202B2002158461BF048FABAF1000F6B
:1059400019D1584619F03EF80546584619F09AF80C
:10595000002D07DC00280EDD002D03DA01230022D4
:10596000294605E0002806DA01230022404201B260
:1059700058461BF02BFA0A215846019A14F0A8F950
:105980006078800706D414F8400F20F00F002070D4
:1059900044F8148CBDE8FC9F7FB50E46040003D18B
:1059A00011F09AF804002CD011F00AF9002828D040
:1059B00094F82800400724D4002506B3ADF8005021
:1059C000ADF80250204611F09FF8401EADF80400DB
:1059D000204611F0DFF8401EADF806006A46314659
:1059E00002A8FFF7A0FA00280BD02068017C8907E5
:1059F00008D5DDE90001C4E90C01012029E0A4F883
:105A000050517FBD82690AB102A9904700260AE081
:105A100004EBC601002202A83031FFF7ACFA0028DF
:105A2000EFD1761CB6B2B4F85001B042F0D880B2D3
:105A3000202804D204EBC00002A9303004E0A4F80E
:105A4000505104F1300069460EF049FDB4F85001A0
:105A5000401CA4F8500160680028D2D01EF07CFCE5
:105A60007FBD70B5054600F012F804460CE02146F3
:105A7000284600F01EF806462146284600F0A2F807
:105A8000204617F0AFF93446002CF0D170BD002845
:105A900000D04068704700B503460022FFF7F7FFCB
:105AA00003E01846521C00F004F80100F9D110463A
:105AB00000BD0068091D4058704700684058704795
:105AC000002800D08068704700224260C91C21F085
:105AD000030182600160704770B5044600680830B9
